:100000000C9472000C9493000C9493000C94930045
:100010000C9493000C94F3010C9404020C94930040
:100020000C9493000C9493000C9493000C94930004
:100030000C9493000C9493000C9493000C949300F4
:100040000C9493000C9493000C9493000C949300E4
:100050000C9493000C9493000C9493000C949300D4
:100060000C9493000C9473040C9493000C949300E0
:100070000C9493000C9493000C9493000C949300B4
:100080000C9493000C9493000C9493000C949300A4
:100090000C9493000C9493000C9493000C94930094
:1000A0000C9493000C9493000C9493000C94930084
:1000B0000C9493000C9493000C9493000C94930074
:1000C0000C9493000C9493000C9493000C94930064
:1000D0000C9493000C9493000C9493000C94930054
:1000E0000C94930011241FBECFEFD1E2DEBFCDBF31
:1000F00000E00CBF12E0A0E0B2E0EEE9FAE000E0C0
:100100000BBF02C007900D92A430B107D9F712E0DF
:10011000A4E0B2E001C01D92AC31B107E1F70E944A
:10012000DD040C944D050C9400008CEC9AE0FC016D
:100130003197F1F74098419840E348B9429A20E05E
:1001400036E3F9013197F1F74298FC013197F1F765
:100150004098419848B9429AF9013197F1F742988D
:10016000FC013197F1F74098419848B9429AF9015A
:100170003197F1F742980197F1F74098419880E262
:1001800088B9429AC9010197F1F74298089598B148
:100190009F7098B928B1982F907F922B98B940986A
:1001A0004198429A20E036E3F9013197F1F74298FD
:1001B00098B19F7098B998B18295807F982B98B923
:1001C00040984198429AC9010197F1F742980895E1
:1001D0008CEC9AE00197F1F788E20E94C70081E079
:1001E0000E94C70086E00E94C7008EE00E94C70000
:1001F00080E80E94C700089598B19F7098B928B10F
:10020000982F907F922B98B9409A4198429A20E07B
:1002100036E3F9013197F1F7429898B19F7098B998
:1002200098B18295807F982B98B9409A4198429ACC
:10023000C9010197F1F74298089580E80E94C7002C
:100240000895CF93DF93EC0103C00E94FC00219638
:1002500088818823D1F7DF91CF910895823069F0AA
:10026000833018F48130A9F405C0833049F084301C
:1002700081F40BC0862F815805C0862F815402C09F
:10028000862F8D560E94C7000895862F8D520E949A
:10029000C70008950F931F93CF93DF938A01E9015D
:1002A000882311F0662319F40E941D0102C00E94E8
:1002B0002E01C530D10571F4C80160E177E20E94DA
:1002C0003905CB01C09690930E0280930D020E94D7
:1002D000FC0005C0C430D10511F080E016C0C80193
:1002E00068EE73E00E943905CB0160930F02909392
:1002F00010026AE070E00E943905C09690931B02DC
:1003000080931A020E94FC0081E0C330D10521F0E5
:10031000813011F080E016C0C80164E670E00E94F0
:100320003905CB0160930F02909310026AE070E0F0
:100330000E943905C09690931702809316020E947E
:10034000FC0081E0C230D10521F0813011F080E065
:1003500016C0C8016AE070E00E943905CB016093C5
:100360000F02909310026AE070E00E943905C09677
:1003700090931502809314020E94FC0081E0C1302A
:10038000D10511F0813061F4C8016AE070E00E948B
:100390003905C09690931902809318020E94FC00C0
:1003A00026971CF085E40E94FC00DF91CF911F91FD
:1003B0000F91089587B1876F87B988B1807888B920
:1003C0000895F894EAE6F0E0808182608083EC9AF8
:1003D00078940895F894EAE6F0E08081886080835C
:1003E000ED9A789408951F920F920FB60F921124F0
:1003F0008F9380910B028F5F80930B028F910F90F0
:100400000FBE0F901F9018951F920F920FB60F926C
:1004100011248F9380910C028F5F80930C028F9137
:100420000F900FBE0F901F90189510920B02109214
:100430000C02089510BA11BA109207011092080127
:10044000089581B18F6081B982B1807F82B9EAE07D
:10045000F1E0808188618083EBE0F1E08081886158
:100460008083089587B1876F87B988B1807888B90C
:1004700010BA11BA10920701109208010E942102CD
:100480000895E1E2F1E010829FEF9093250181E071
:1004900080932401109229019093280110922B013E
:1004A00090932A0110922D0190932C0189EA809358
:1004B00020018BE080830895EAE7F0E0108210923B
:1004C0007B0080E280937C0080E880BF86E88083A8
:1004D0000895982F883018F088E080937B009770FB
:1004E000906290937C0080917A00806480937A007F
:1004F00080917A0084FFFCCF8091790090917A00FE
:10050000906190937A0010927B0008950F931F934F
:10051000182F062F842F0E946902482F8093110202
:10052000812F602F50E023E030E00E944A011F91AC
:100530000F9108958093280160932A01089592B144
:10054000907F8F70892B82B9089582B1807F8660F9
:1005500082B9089582B1807F82B90895F8940E948B
:100560003202EAE7F0E0108210927B0080E2809392
:100570007C0080E880BF86E880830E9441027894F6
:10058000089581E061E043E00E94860281E065E039
:1005900042E00E94860281E069E041E00E9486021A
:1005A000089583E00E9469028093050282E00E9420
:1005B00069028093060281E00E946902809307022B
:1005C00086E00E94690280930802089586B18860DF
:1005D00088B910920202089586B1877F88B9109277
:1005E0000202089586B1877F88B91092020282B113
:1005F000807F8A6082B984E68093280180932A01F3
:1006000080E197E224E131E0F9013197F1F70197B8
:10061000D9F70E94C1020E94D102809106028F3058
:10062000C0F71092280110922A01089586B1877FA1
:1006300088B91092020282B1807F856082B984E617
:100640008093280180932A0180E197E224E131E040
:10065000F9013197F1F70197D9F70E94C1020E9481
:10066000D102809106028F30C0F7109228011092BB
:100670002A010895CF93DF9310920B0210920C027F
:1006800092B1907F966092B994E6909328019093EE
:100690002A01109205019AE0899FE00111240E942D
:1006A000D1020E94C10280910802803F30F482B1E1
:1006B000807F82B986B1886006C082B1807F866003
:1006C00082B986B1877F88B91092020280910B02AD
:1006D00020910C0290E0820F911D9C01220F331F8C
:1006E000220F331F280F391FC217D307C4F61092E9
:1006F000280110922A01DF91CF9108958F929F9245
:10070000AF92BF92CF92DF92EF92FF920F931F931F
:1007100003E010E089E9882EB4E6BB2EA5E0AA2EFE
:10072000FAE09F2EE2E8CE2E72E3D72E66E9F62E8F
:1007300058E7E52E809105018F5F80930501809138
:1007400006028830E8F4809105028830C8F4809170
:1007500007028830A8F48AEA8093050110922801E4
:1007600010922A0188E00E943A031F910F91FF9096
:10077000EF90DF90CF90BF90AF909F908F900895B3
:100780000E94D102109204020E94C10280910802CC
:10079000803F48F482B1807F82B986B1886088B991
:1007A00010920202C7CF20910502203178F080918B
:1007B00006028F3058F480910702803138F082B100
:1007C000807F866082B9F092280110C02F3018F522
:1007D000909106029F3068F480910702803148F0C2
:1007E00082B1807F866082B9E0922801F0922A016E
:1007F00024C0903180F080910702803160F0A2B86F
:10080000D0922801C0922A0186B1877F88B91092C0
:10081000020203E029C0203148F1909106029F3086
:1008200090F4809107028F3070F482B1807F8660EF
:1008300082B9F0922801E0922A0186B1877F88B9B7
:100840001092020211C0903188F0809107028F301F
:1008500068F492B8C0922801D0922A0186B1877FAD
:1008600088B91092020201E010E064CF86B1877F60
:1008700088B9109202021530D0F0033021F482B111
:10088000807F856005C0013021F482B1807F8A605D
:1008900082B9B0922801B0922A010E94C1020E943E
:1008A000D102809106028F30C0F715E001C01F5FB2
:1008B00082B1807F866082B91092280110922A014D
:1008C0008092050137CFE1ECF0E010821092C00079
:1008D00086E08093C20087E48093C4001092C50034
:1008E00088E9808308951F920F920FB60F9211240A
:1008F0008F939F938091C60080930A0280E09CE6CC
:100900000197F1F780910A02807E09F04AC08FEFCB
:100910008093050180910A028F7180930902809172
:100920000902853039F48093050180910202809399
:10093000C60037C090910902923041F481E0809363
:1009400005019093020282E090E027C080910902A5
:10095000882351F482E08093050180930202109273
:100960000102109200021DC080910902813049F4F9
:1009700083E08093050182E08093020281E090E0B1
:100980000CC080910902833061F484E080930501FA
:1009900082E08093020283E090E0909301028093D2
:1009A00000029F918F910F900FBE0F901F9018958E
:1009B000F8940E946304789408950F931F93CF9343
:1009C000DF930E94D8040E94AE020E9495000E940C
:1009D000E8008FEF8093040180EF809305010E946F
:1009E000E1010E94EA0110E083E00E946902809325
:1009F000050282E00E9469028093060281E00E9463
:100A00006902809307021F5F1A3071F702E011E05C
:100A1000CAE0D0E08091000290910102029729F48F
:100A2000009302020E947E031BC0809100029091FD
:100A30000102892B29F4009302020E94F20210C0E5
:100A40008091000290910102019731F080910002A3
:100A5000909101020397F1F6009302020E9416039F
:100A60001092090210930202D0930102C093000277
:100A7000D1CFAA1BBB1B51E107C0AA1FBB1FA617E2
:100A8000B70710F0A61BB70B881F991F5A95A9F737
:0E0A900080959095BC01CD010895F894FFCF9C
:040A9E000A00010049
:00000001FF
